:1000000014C1000042C1000040C100003EC1000018
:100010003CC100003AC1000038C1000036C10000F8
:1000200034C1000032C1000030C100002EC1000008
:100030002CC100002AC1000028C1000026C1000018
:1000400024C1000022C1000020C100001EC1000028
:100050001CC100001AC1000018C1000010C6000039
:1000600014C10000D6C50000ABC500000EC10000E1
:100070000CC100000AC1000008C1000006C1000058
:1000800004C1000002C1000000C10000FEC0000069
:10009000FCC00000FAC00000F8C00000F6C000007C
:1000A000F4C00000F2C00000F0C00000EEC000008C
:1000B000ECC00000EAC00000E8C00000E6C000009C
:1000C000E4C00000E2C00000E0C00000DEC00000AC
:1000D000DCC00000DAC00000D8C00000D6C00000BC
:1000E000D4C000009502980287028B029102CF02D1
:1000F0009C02A002A602AA02AE02B402B802BC028E
:10010000CF02C202C602CA0200002100240027005A
:100110002A002D0030003300010100000401070116
:100120000A0100002200250028002B002E003100CB
:10013000340002010000050108010B01000020004D
:100140002300260029002C002F00320000010000AF
:10015000030106010901050505050705080808084A
:10016000020202020A0A080804040404010101014F
:10017000010101010303030303030303040707074A
:100180000C0C0C0C0C0C0C0C0202020206060606EF
:10019000060606060B0B0B0B0B0B0B0B01021020BC
:1001A00020080810204010204080020102010804AD
:1001B0000201010204081020408080402010080441
:1001C000020180040201804020100804020108049A
:1001D00002010102040810204080010204081020DE
:1001E000408000000A0B02090C0D0E0807030401F1
:1001F00000000000000000000000000000000000FF
:1002000000000000000000000000000000001211CB
:1002100010000000000000000000000000000000CE
:100220000000000000000000890611241FBECFEF6F
:10023000D1E2DEBFCDBF00E00CBF12E0A0E0B2E033
:10024000EEEDF4E100E00BBF02C007900D92A43286
:10025000B107D9F722E0A4E2B2E001C01D92A03DAF
:10026000B207E1F711E0C5E1D1E000E006C0219757
:100270000109802FFE010E94610AC431D10780E08C
:100280000807A9F77DD50C946D0ABACECF92DF92FC
:10029000EF92FF920F931F93CF93DF936C017A013C
:1002A0008B01C0E0D0E0CE15DF0589F0D8016D915B
:1002B0008D01D601ED91FC910190F081E02DC601F8
:1002C0001995892B11F47E0102C02196ECCFC7014C
:1002D000DF91CF911F910F91FF90EF90DF90CF9022
:1002E0000895089580E090E00895FC01538D448DB9
:1002F000252F30E0842F90E0821B930B541710F0D1
:10030000CF96089501970895FC01918D828D9817DD
:1003100061F0828DDF01A80FB11D5D968C91928DE9
:100320009F5F9F73928F90E008958FEF9FEF0895E6
:10033000FC01918D828D981731F0828DE80FF11DAF
:10034000858D90E008958FEF9FEF0895FC01918DCA
:10035000228D892F90E0805C9F4F821B91098F73C3
:10036000992708958DE292E0F1DF21E0892B09F4CD
:1003700020E0822F0895FC01848DDF01A80FB11DBC
:10038000A35ABF4F2C91848D90E001968F739927CB
:10039000848FA689B7892C93A089B1898C918064B8
:1003A0008C93938D848D981306C00288F389E02D79
:1003B00080818F7D80830895EF92FF920F931F932A
:1003C000CF93DF93EC0181E0888F9B8D8C8D981308
:1003D00005C0E889F989808185FD23C0F62E0B8D43
:1003E00010E00F5F1F4F0F731127E02E8C8DE81266
:1003F0000BC00FB607FCFACFE889F989808185FF29
:10040000F5CFCE01B8DFF2CF8B8DFE01E80FF11DE5
:10041000E35AFF4FF0820B8FEA89FB89808180626B
:1004200007C0EE89FF896083E889F989808180644B
:10043000808381E090E0DF91CF911F910F91FF9039
:10044000EF900895CF93DF93EC01888D8823C1F05E
:10045000EA89FB89808185FD05C0A889B9898C91CD
:1004600086FD0EC00FB607FCF5CF808185FFF2CF69
:10047000A889B9898C9185FFEDCFCE017CDFE8CFCB
:10048000DF91CF91089580E090E0892B19F06ADF29
:10049000811125C080E090E0892B41F080E090E060
:1004A000892B21F00E94000081111CC080E090E0A7
:1004B000892B41F080E090E0892B21F00E94000020
:1004C000811113C080E090E0892BA1F080E090E0E2
:1004D000892B81F00E94000081110AC008950E94BA
:1004E0000000D8CF0E940000E1CF0E940000EACFB8
:1004F0000C940000089590E0FC013197E231F10581
:1005000008F04DC08827EE58FF4F8F4FDAC7809113
:1005100080008F7703C0809180008F7D8093800062
:10052000089580918000877FF9CF84B58F7702C0CE
:1005300084B58F7D84BD08958091B0008F7703C00E
:100540008091B0008F7D8093B000089580919000DD
:100550008F7707C0809190008F7D03C080919000BD
:10056000877F8093900008958091A0008F7707C0C7
:100570008091A0008F7D03C08091A000877F809331
:10058000A0000895809120018F7707C080912001FD
:100590008F7D03C080912001877F80932001089583
:1005A000CF93DF93282F30E0F901EE51FE4F849175
:1005B000F901E456FE4FD491F901EA5AFE4FC49175
:1005C000CC2389F0811197DFEC2FF0E0EE0FFF1FB5
:1005D000E45CFE4FA591B491EC91ED2381E090E0B5
:1005E00021F480E002C080E090E0DF91CF91089597
:1005F0001F93CF93DF93282F30E0F901EE51FE4F88
:100600008491F901E456FE4FD491F901EA5AFE4F64
:10061000C491CC23C1F0162F81116DDFEC2FF0E0D7
:10062000EE0FFF1FEE5DFE4FA591B4918FB7F894CA
:10063000111105C09C91ED2FE095E92302C0EC91CA
:10064000ED2BEC938FBFDF91CF911F910895CF9346
:10065000DF9390E0FC01E456FE4F2491FC01EA5A3E
:10066000FE4F8491882361F190E0880F991FFC016F
:10067000E85FFE4FC591D491FC01EE5DFE4FA59160
:10068000B491611109C09FB7F894888120958223A5
:100690008883EC912E230BC0623061F49FB7F894ED
:1006A0003881822F809583238883EC912E2B2C9385
:1006B0009FBF06C08FB7F894E8812E2B28838FBF89
:1006C000DF91CF910895CF93DF93D82FC62F61E0AC
:1006D000BEDF61E08C2FBBDF61E08D2F89DF61E041
:1006E0008C2F86DF60E08C2FDF91CF9181CF3FB7D9
:1006F000F8948091290290912A02A0912B02B09146
:100700002C0226B5A89B05C02F3F19F00196A11D0C
:10071000B11D3FBFBA2FA92F982F8827820F911D97
:10072000A11DB11DBC01CD0142E0660F771F881FDE
:10073000991F4A95D1F708958F929F92AF92BF92D9
:10074000CF92DF92EF92FF926B017C01D0DF4B01E1
:100750005C01C114D104E104F104E9F0C8DFDC015B
:10076000CB0188199909AA09BB09883E9340A105C4
:10077000B10578F321E0C21AD108E108F10888EE4A
:10078000880E83E0981EA11CB11CC114D104E104A1
:10079000F10421F7DECFFF90EF90DF90CF90BF9074
:1007A000AF909F908F900895EF92FF920F931F93B9
:1007B000CF93DF93E82EF62E08E010E0C0E0D0E003
:1007C00061E08F2D15DF6AE070E080E090E0B4DF3B
:1007D000CC0FDD1F8E2DE4DEC80FD91F60E08F2DFA
:1007E00007DF0150110961F7CE01DF91CF911F9111
:1007F0000F91FF90EF900895EF92FF920F931F9348
:10080000CF93DF93C82FF92ED62FE72E60E01FDF9E
:1008100061E08D2F1CDF6D2F7E2D8C2F9F2DC4DF6F
:1008200000E010E0182F61E08C2F11DF61E08C2FC9
:10083000DFDE60E08C2FDCDE61E08D2FD9DE60E052
:100840008D2FD6DE60E08C2F02DF6D2F7E2D8C2F5A
:100850009F2DAADF802B912BDF91CF911F910F91BC
:10086000FF90EF9008951F93CF93DF93182F60E0D0
:10087000EEDEC4E6D0E06AE070E080E090E05CDFAD
:10088000812F8EDE892B11F02197A9F7DF91CF916F
:100890001F910895009761F0FC0101900020E9F795
:1008A0003197AF01481B590BBC018DE292E0EECCB1
:1008B00080E090E008958F929F92AF92BF920F9345
:1008C0001F93CF93DF93CDB7DEB7A1970FB6F89400
:1008D000DEBF0FBECDBF19A2423008F44AE08E0140
:1008E0000F5D1F4F842E912CA12CB12CA5019401DA
:1008F000C6D5E62FB901CA0101501109EA3014F436
:10090000E05D01C0E95CD801EC93232B242B252B5F
:1009100069F7C801BFDFA1960FB6F894DEBF0FBE1E
:10092000CDBFDF91CF911F910F91BF90AF909F905E
:100930008F9008954F925F926F927F928F929F92C5
:10094000AF92BF92CF92DF92EF92FF926B017C0148
:10095000B42E9B01AC018FD5882319F082E192E07F
:1009600024C026013701E89477F82FEF3FEF4FE7D7
:100970005FE7C301B2017FD581110CC02FEF3FEFBC
:100980004FE75FE7C301B201C0D318161CF486E13C
:1009900092E00BC02FEF3FEF4FE75FE4C701B601D6
:1009A00003D518167CF48AE192E0FF90EF90DF9077
:1009B000CF90BF90AF909F908F907F906F905F90FF
:1009C0004F9068CF2FEF3FEF4FE75FECC701B601C5
:1009D0009CD387FDE8CF20E030E0A901C701B60134
:1009E00094D387FF11C0E0912D02F0912E02019067
:1009F000F081E02D6DE28DE292E019954C01F7FA5D
:100A0000F094F7F8F09402C0812C912CA12C60E0B6
:100A100070E080E09FE3AB1439F020E030E040E28A
:100A200051E477D3A394F7CF9B01AC01C701B60182
:100A300008D32B013C01DAD36B017C0103D49B0169
:100A4000AC01C301B201FCD22B013C014AE0C70159
:100A5000B60131DF7C01E80CF91CBB2069F0E091A4
:100A60002D02F0912E020190F081E02D6EE28DE2D8
:100A700092E01995E80EF91EDB2CDD20F9F020E05C
:100A800030E040E251E4C301B20192D42B013C01B9
:100A9000ADD34B01A12CB12C4AE0C501B4010BDF51
:100AA000E80EF91EC501B401CDD39B01AC01C30111
:100AB000B201C6D22B013C01DA94DFCFC701FF900F
:100AC000EF90DF90CF90BF90AF909F908F907F90EE
:100AD0006F905F904F900895EF92FF920F931F9346
:100AE000CF93DF937C01D62FC42F61E08D2FAFDD34
:100AF00061E08C2FACDD61E08D2F7ADD61E08C2F21
:100B000077DD60E08D2F74DD60E08C2F71DD61E0BA
:100B10008C2F6EDD61E08D2F6BDD60E08C2F68DD4A
:100B200007E010E0FF24B701002E02C0759567951D
:100B30000A94E2F7617077278D2F5ADD61E08C2FE0
:100B400057DD60E08C2F54DD0150110960F761E042
:100B50008C2F4EDD60E08D2F7ADD8D2F21DD60E062
:100B60008C2F46DD8D2FDF91CF911F910F91FF903C
:100B7000EF9016CD0F931F93CF93DF93CAECD2E083
:100B80004A815B816881798183E090E0A5DF88817B
:100B9000998169DE6A817B81888199812DDE8C0152
:100BA0006A817B81888199818EDDB801110F880B64
:100BB000990B4AD3DF91CF911F910F91089589D45A
:100BC0001F920F920FB60F9211240BB60F922F9314
:100BD0003F934F935F936F937F938F939F93AF93C5
:100BE000BF93EF93FF938DE292E0C5DBFF91EF910E
:100BF000BF91AF919F918F917F916F915F914F9135
:100C00003F912F910F900BBE0F900FBE0F901F9032
:100C100018951F920F920FB60F9211240BB60F92D8
:100C20002F938F939F93EF93FF93E0913D02F09169
:100C30003E028081E0914302F091440282FD12C0A5
:100C40009081809146028F5F8F73209147028217B7
:100C500051F0E0914602F0E0E35DFD4F958F809307
:100C6000460201C08081FF91EF919F918F912F915A
:100C70000F900BBE0F900FBE0F901F9018951F92F4
:100C80000F920FB60F9211242F933F938F939F9340
:100C9000AF93BF938091250290912602A0912702E5
:100CA000B09128023091240223E0230F2D3720F445
:100CB0000196A11DB11D05C026E8230F0296A11DB6
:100CC000B11D209324028093250290932602A093C5
:100CD0002702B09328028091290290912A02A091C4
:100CE0002B02B0912C020196A11DB11D8093290207
:100CF00090932A02A0932B02B0932C02BF91AF9144
:100D00009F918F913F912F910F900FBE0F901F9049
:100D10001895EDE2F2E01382128288EE93E0A0E0F3
:100D2000B0E084839583A683B78384E092E09183C7
:100D3000808385EC90E09587848784EC90E09787AA
:100D4000868780EC90E0918B808B81EC90E0938B98
:100D5000828B82EC90E0958B848B86EC90E0978B75
:100D6000868B118E128E138E148EEAECF2E08BE0DD
:100D700090E0918380838AE090E09383828308955A
:100D8000CF93DF9300D01F92CDB7DEB7789484B5B0
:100D9000826084BD84B5816084BD85B5826085BD77
:100DA00085B5816085BD80916E00816080936E0005
:100DB00010928100809181008260809381008091F7
:100DC00081008160809381008091800081608093A8
:100DD00080008091B10084608093B1008091B00068
:100DE00081608093B0008091910082608093910037
:100DF000809191008160809391008091900081604A
:100E0000809390008091A10082608093A1008091E6
:100E1000A10081608093A1008091A00081608093F7
:100E2000A0008091210182608093210180912101A5
:100E30008160809321018091200181608093200155
:100E400080917A00846080937A0080917A00826039
:100E500080937A0080917A00816080937A008091FB
:100E60007A00806880937A001092C100E0913D0280
:100E7000F0913E0282E08083E0913902F0913A02E3
:100E80001082E0913B02F0913C028FEC8083109243
:100E90004502E0914102F091420286E08083E091B8
:100EA0003F02F0914002808180618083E0913F02A7
:100EB000F0914002808188608083E0913F02F09150
:100EC0004002808180688083E0913F02F09140027F
:100ED00080818F7D808361E089E0B9DB4BDE81D149
:100EE000072E000C880B990BAFD12AE037ED43E2B7
:100EF0005CE35ED220E030E040E252E4A1D04B015E
:100F00005C014091CC025091CD026091CA02709177
:100F1000CB0285E090E0E0DD8091CA029091CB02A7
:100F2000A2DC6091CC027091CD028091CA029091B6
:100F3000CB0262DC7C016091CC027091CD02809189
:100F4000CA029091CB02BFDBB701FF0C880B990B53
:100F50007BD16B017C0124E533EE45E25DE328D2D1
:100F600020E030E040E850E46BD02B013C0122EA65
:100F700037EE4BE356EBC701B6011AD2A701960133
:100F800017D29B01AC01C301B2015BD069837A83A4
:100F90008B839C83EFDD25D1072E000C880B990BEA
:100FA00053D12AE037ED43E25CE302D220E030E0A7
:100FB00040E252E445D020E030E048EC51E440D03B
:100FC0002B013C012CEA35EC47EA58E3C701B60196
:100FD000EFD12AE037ED43E25CE333D09B01AC0173
:100FE000C301B201E5D129813A814B815C8129D0CD
:100FF0006B017C0142E0C501B4019CDC8EE192E012
:1010000049DC42E0C701B60195DC8EE192E042DCAA
:1010100080E292E03FDC20E030E048EE51E4C501A0
:10102000B401C2D1181614F461E001C060E089E097
:10103000DFDA64EF71E080E090E07EDB24DA4ECF0F
:101040005058BB27AA270ED075C166D130F06BD19E
:1010500020F031F49F3F11F41EF45BC10EF4E095D3
:10106000E7FB51C1E92F77D180F3BA176207730705
:101070008407950718F071F49EF58FC10EF4E09582
:101080000B2EBA2FA02D0B01B90190010C01CA0142
:10109000A0011124FF27591B99F0593F50F4503EED
:1010A00068F11A16F040A22F232F342F4427585FDF
:1010B000F3CF469537952795A795F0405395C9F7F7
:1010C0007EF41F16BA0B620B730B840BBAF09150AF
:1010D000A1F0FF0FBB1F661F771F881FC2F70EC04E
:1010E000BA0F621F731F841F48F487957795679521
:1010F000B795F7959E3F08F0B3CF9395880F08F00A
:101100009927EE0F979587950895D9D008F481E037
:1011100008950CD00FC107D140F0FED030F021F47B
:101120005F3F19F0F0C0511139C1F3C014D198F3E9
:101130009923C9F35523B1F3951B550BBB27AA2758
:1011400062177307840738F09F5F5F4F220F331FCA
:10115000441FAA1FA9F333D00E2E3AF0E0E830D096
:1011600091505040E695001CCAF729D0FE2F27D099
:10117000660F771F881FBB1F261737074807AB0767
:10118000B0E809F0BB0B802DBF01FF2793585F4FDC
:101190002AF09E3F510568F0B6C000C15F3FECF3F6
:1011A000983EDCF3869577956795B795F7959F5FA1
:1011B000C9F7880F911D9695879597F90895E1E0F5
:1011C000660F771F881FBB1F621773078407BA0754
:1011D00020F0621B730B840BBA0BEE1F88F7E095AF
:1011E000089504D06894B111D9C00895BCD088F096
:1011F0009F5790F0B92F9927B751A0F0D1F0660F03
:10120000771F881F991F1AF0BA95C9F712C0B1301D
:1012100081F0C3D0B1E00895C0C0672F782F882730
:10122000B85F39F0B93FCCF3869577956795B3955C
:10123000D9F73EF490958095709561957F4F8F4FCB
:101240009F4F0895E89409C097FB3EF490958095D0
:10125000709561957F4F8F4F9F4F9923A9F0F92F7C
:1012600096E9BB279395F695879577956795B795FA
:10127000F111F8CFFAF4BB0F11F460FF1BC06F5FE0
:101280007F4F8F4F9F4F16C0882311F096E911C0F2
:10129000772321F09EE8872F762F05C0662371F013
:1012A00096E8862F70E060E02AF09A95660F771F27
:1012B000881FDAF7880F9695879597F90895990F03
:1012C0000008550FAA0BE0E8FEEF16161706E80710
:1012D000F907C0F012161306E407F50798F0621B31
:1012E000730B840B950B39F40A2661F0232B242B06
:1012F000252B21F408950A2609F4A140A6958FEF25
:10130000811D811D089597F99F6780E870E060E076
:1013100008959FEF80EC089500240A94161617068E
:1013200018060906089500240A94121613061406D6
:1013300005060895092E0394000C11F4882352F039
:10134000BB0F40F4BF2B11F460FF04C06F5F7F4FF1
:101350008F4F9F4F089557FD9058440F551F59F0D8
:101360005F3F71F04795880F97FB991F61F09F3F92
:1013700079F087950895121613061406551FF2CFBB
:101380004695F1DF08C0161617061806991FF1CF0B
:1013900086957105610508940895E894BB27662732
:1013A0007727CB0197F908958ADF08F48FEF089526
:1013B0000BD0C0CFB1DF28F0B6DF18F0952309F0CD
:1013C000A2CFA7CF1124EACFC6DFA0F3959FD1F318
:1013D000950F50E0551F629FF001729FBB27F00DE3
:1013E000B11D639FAA27F00DB11DAA1F649F662738
:1013F000B00DA11D661F829F2227B00DA11D621F87
:10140000739FB00DA11D621F839FA00D611D221F40
:10141000749F3327A00D611D231F849F600D211D24
:10142000822F762F6A2F11249F5750408AF0E1F0C7
:1014300088234AF0EE0FFF1FBB1F661F771F881F10
:1014400091505040A9F79E3F510570F05CCFA6CF58
:101450005F3FECF3983EDCF3869577956795B795FB
:10146000F795E7959F5FC1F7FE2B880F911D969525
:10147000879597F9089523DF880B990B0895A1E2CA
:101480001A2EAA1BBB1BFD010DC0AA1FBB1FEE1FFE
:10149000FF1FA217B307E407F50720F0A21BB30B49
:1014A000E40BF50B661F771F881F991F1A9469F7C5
:1014B00060957095809590959B01AC01BD01CF0121
:1014C0000895EE0FFF1F881F8BBF0790F691E02D48
:0E14D000199481E090E0F89400C0F894FFCFEA
:1014DE0000000000DC01460175012202A601840114
:1014EE0098016E616E00696E66006F766600090087
:0414FE000D0A0000D3
:00000001FF
